:100000000C94350B0C94660B0C94660B0C94660BDD
:100010000C94660B0C94660B0C94660B0C94660B9C
:100020000C94660B0C94660B0C94660B0C94660B8C
:100030000C94660B0C94660B0C94660B0C94660B7C
:100040000C94660B0C94EA490C94660B0C94660BAA
:100050000C94660B0C94660B0C9480570C94B3575D
:100060000C94660B0C94680B0C94660B0C94660B4A
:100070000C94660B0C94660B0C94660B0C94660B3C
:100080000C94660B0C94660B0C94660B0C94660B2C
:100090000C94660B0C94660B0C94660B0C94660B1C
:1000A0000C94660B0C94660B0C94660B0C94660B0C
:1000B0000C94660B0C94660B0C94660B0C94660BFC
:1000C0000C94660B0C94660B0C94660B0C94660BEC
:1000D0000C94660B0C94660B0C94660B0C94660BDC
:1000E0000C94660BCC56DA56F956FC56FF5602575E
:1000F000055708570B570E57115714571E57E858F6
:10010000ED58F258FC5806597F5910591859205982
:100110002A5934593E594D5957597F5961596B598C
:100120007559A059A359925996599C59DA59A7590A
:10013000AB59B159B559B959BF59C359C759DA590A
:10014000CD59D159D559084AD73B3BCE016E84BC15
:10015000BFFDC12F3D6C74319ABD56833DDA3D0021
:10016000C77F11BED9E4BB4C3E916BAAAABE00006A
:1001700000803F05A84CCDB2D44EB93836A9020C48
:1001800050B9918688083CA6AAAA2ABE0000008021
:100190003F005072696E7465722068616C746564AA
:1001A0002E206B696C6C28292063616C6C6564215E
:1001B0000A004B494C4C45442E200020746F6F20A0
:1001C0006C6F6E6720657874727573696F6E2070DE
:1001D000726576656E7465640A0020636F6C6420D6
:1001E000657874727573696F6E2070726576656E6E
:1001F0007465640A006F6B00526573656E643A2023
:1002000000546F6F206661722066726F6D20726598
:10021000666572656E636520706F696E740A00436F
:10022000290A0061626C656420286D696E2074651E
:100230006D702000436F6C6420657874727564651E
:100240007320617265200020633A0020643A002028
:10025000693A0020703A0053657474696E672054DF
:10026000726176656C20416363656C657261746967
:100270006F6E3A200053657474696E67205265741E
:100280007261637420416363656C65726174696F48
:100290006E3A200053657474696E67205072696EFF
:1002A0007420416363656C65726174696F6E3A2096
:1002B0000053657474696E67205072696E742061B2
:1002C0006E642054726176656C20416363656C6571
:1002D000726174696F6E3A20004649524D5741521F
:1002E000455F4E414D453A4D61726C696E20312E2D
:1002F000312E302D524337202847697468756229A2
:1003000020534F555243455F434F44455F55524C30
:100310003A68747470733A2F2F6769746875622E27
:10032000636F6D2F4D61726C696E4669726D776196
:1003300072652F4D61726C696E2050524F544F435D
:100340004F4C5F56455253494F4E3A312E30204D57
:10035000414348494E455F545950453A3344205033
:1003600072696E7465722045585452554445525F07
:10037000434F554E543A3120555549443A636564CC
:1003800065326132662D343161322D343734382D87
:10039000396231322D63353563363266333637662E
:1003A000660A003F0A0020573A006F6B004D31315A
:1003B000332053004B494C4C45442E2000454348C4
:1003C0004F00494E464F004552524F52530044523F
:1003D0005952554E00434F4D4D554E494341544996
:1003E0004F4E006F666600BD03C203C703CE03D540
:1003F0000344454255473A002569730025696D203D
:10040000256973002569682025696D2025697300B9
:10041000256964202569682025696D202569730098
:1004200025697920256964202569682025696D2062
:10043000256973005072696E742074696D653A2085
:100440000020453A00205A3A0020593A00583A0014
:100450005761726E696E673A20486F6D696E6720EA
:1004600042756D702044697669736F72203C20314B
:100470000A00416374697665204578747275646515
:10048000723A200020403A00202F0020543A0062A7
:100490007573793A2070617573656420666F722098
:1004A000696E7075740A00627573793A20706175AF
:1004B00073656420666F7220757365720A006275D9
:1004C00073793A2070726F63657373696E670A009F
:1004D000220A00556E6B6E6F776E20636F6D6D61D3
:1004E0006E643A20220020496E76616C6964206552
:1004F0007874727564657220004B494C4C45442EEB
:1005000020005072696E7465722073746F7070652C
:10051000642064756520746F206572726F72732E2B
:100520002046697820746865206572726F72206158
:100530006E6420757365204D39393920746F2072CF
:100540006573746172742E202854656D70657261D4
:10055000747572652069732072657365742E2053FB
:1005600065742069742061667465722072657374A5
:10057000617274696E67290A004E6F204C696E655E
:10058000204E756D626572207769746820636865B6
:10059000636B73756D2C204C617374204C696E65B0
:1005A0003A20004E6F20436865636B73756D20774A
:1005B000697468206C696E65206E756D6265722C59
:1005C000204C617374204C696E653A200063686545
:1005D000636B73756D206D69736D617463682C2036
:1005E0004C617374204C696E653A20004C696E65ED
:1005F000204E756D626572206973206E6F74204C99
:10060000617374204C696E65204E756D6265722B46
:10061000312C204C617374204C696E653A20004D7A
:10062000313130002020506C616E6E65724275660B
:1006300066657242797465733A200020467265657A
:10064000204D656D6F72793A20004A756C20333108
:1006500020323031360A00436F6D70696C65643A40
:100660002000286E6F6E652C2064656661756C7461
:1006700020636F6E666967290A00207C20417574CB
:10068000686F723A2000323031362D30372D3236D5
:100690002031323A303000204C6173742055706440
:1006A000617465643A200020312E312E302D524382
:1006B000370A004D61726C696E0020536F66747763
:1006C0006172652052657365740A00205761746316
:1006D00068646F672052657365740A002042726F08
:1006E000776E206F75742052657365740A0020451B
:1006F000787465726E616C2052657365740A00507F
:100700006F77657255700A0073746172740A002203
:100710000A00656E7175657565696E67202200FF58
:10072000FFFF0000A0400000A040000000400000CB
:100730004843000048430000484300000000000018
:100740000000000000000000484300004843000093
:100750004843000000000000000000000000656346
:10076000686F3A004572726F723A0020204D323045
:10077000302044300A0020204D3230302044002008
:1007800044697361626C65640A0046696C616D65F9
:100790006E742073657474696E67733A00204C0040
:1007A00020430020440020490020204D33303120D8
:1007B00050005049442073657474696E67733A0A37
:1007C00000205A0020590020204D32303620580099
:1007D000486F6D65206F666673657420286D6D299E
:1007E0000A00204500205A002058002042002054D2
:1007F0000020204D323035205300416476616E6315
:100800006564207661726961626C65733A20533D5C
:100810004D696E20666565647261746520286D6D32
:100820002F73292C20543D4D696E207472617665BA
:100830006C20666565647261746520286D6D2F7328
:10084000292C20423D6D696E696D756D2073656759
:100850006D656E742074696D6520286D73292C2078
:10086000583D6D6178696D756D205859206A6572C3
:100870006B20286D6D2F73292C20205A3D6D6178D7
:10088000696D756D205A206A65726B20286D6D2F19
:1008900073292C2020453D6D6178696D756D20456B
:1008A000206A65726B20286D6D2F73290A00205411
:1008B0000020520020204D3230342050004163632C
:1008C000656C65726174696F6E733A20503D707229
:1008D000696E74696E672C20523D72657472616333
:1008E0007420616E6420543D74726176656C0A00F8
:1008F000204500205A0020590020204D3230312060
:1009000058004D6178696D756D20416363656C6554
:10091000726174696F6E20286D6D2F7332293A0AE7
:1009200000204500205A0020590020204D3230334D
:100930002058004D6178696D756D2066656564723B
:100940006174657320286D6D2F73293A0A00204564
:1009500000205A0020590020204D393220580053E1
:10096000746570732070657220756E69743A0A0040
:1009700048617264636F6465642044656661756C88
:10098000742053657474696E6773204C6F6164657D
:10099000640A007A5F6D696E3A2000795F6D696E56
:1009A0003A2000785F6D696E3A20005265706F7270
:1009B00074696E6720656E6473746F702073746100
:1009C0007475730A00205A3A0020593A0020583AA8
:1009D00000656E6473746F7073206869743A2000E8
:1009E00020746F6F206C6F6E6720657874727573FA
:1009F000696F6E2070726576656E7465640A00209A
:100A0000636F6C6420657874727573696F6E2070A3
:100A1000726576656E7465640A00205A3A00205942
:100A20003A0020436F756E7420583A200024F4D4A5
:100A30003050C38E20C2A24017828B7011127A915F
:100A40000D816CD90AA861E108C758660761514356
:100A5000061E4B5D05C145A7041A411104093D98C6
:100A600003713931034036DB0265339102D43054CF
:100A700002802E1D02632CEE01752AC501B028A04C
:100A800001102781018F2564012B244B01E02234C2
:100A900001AC211F018D200D01801FFC00841EED83
:100AA00000971DDF00B81CD200E61BC600201BBC4F
:100AB00000641AB200B219A8000A19A0006A1899B5
:100AC00000D117910040178B00B516840031167EB7
:100AD00000B31579003A157300C7146F0058146AF3
:100AE00000EE1366008813630025135E00C7125BD7
:100AF000006C12570015125400C111510070114FB3
:100B00000021114B00D61049008D104700461044BB
:100B10000002104200C00F4000800F3E00420F3C18
:100B200000060F3B00CB0E3800930E37005C0E35ED
:100B300000270E3400F30D3200C10D3100900D304E
:100B400000600D2E00320D2D00050D2C00D90C2B50
:100B500000AE0C2900850C29005C0C2700350C2701
:100B6000000E0C2600E80B2400C40B2400A00B236D
:100B7000007D0B23005A0B2100390B2100180B209C
:100B800000F80A1F00D90A1E00BB0A1E009D0A1D9C
:100B900000800A1D00630A1C00470A1B002C0A1B68
:100BA00000110A1A00F7091A00DD091900C4091911
:100BB00000AB091900920917007B09180063091797
:100BC000004C09160036091600200916000A0915FE
:100BD00000F5081500E0081400CC081400B808144B
:100BE00000A4081400900813007D0812006B08137D
:100BF000005808120046081200340811002308119A
:100C0000001208110001081100F0071000E00710A1
:100C100000D0071000C0071000B0070F00A1071098
:100C20000091070E0083070F0074070F0065070E81
:100C30000057070E0049070E003B070D002E070E58
:100C40000020070D0013070D0006070D00F9060C24
:100C500000ED060D00E0060C00D4060C00C8060CE2
:100C600000BC060C00B0060C00A4060B0099060C94
:100C7000008D060B0082060B0077060B006C060B3E
:100C80000061060A0057060B004C060A0042060ADD
:100C90000038060A002E060A0024060A001A060A70
:100CA000001006090007060A00FD050900F4050901
:100CB00000EB050900E2050900D9050900D0050986
:100CC00000C7050900BE050900B5050800AD050807
:100CD00000A50509009C050800940508008C05087E
:100CE00000840508007C050800740508006C0507F1
:100CF00000650508005D050700560508004E05075C
:100D000000470507004005080038050700310507C2
:100D1000002A050700230507001C05060016050725
:100D2000000F0507000805060002050700FB040682
:100D300000F5040700EE040600E8040600E20407DC
:100D400000DB040600D5040600CF040600C9040633
:100D500000C3040600BD040600B7040600B1040584
:100D600000AC040600A6040600A00405009B0406CF
:100D70000095040500900406008A0405008504051A
:100D800000800406007A040500750405007004055F
:100D9000006B04050066040500610405005C0405A1
:100DA0000057040500520405004D040500480405E1
:100DB00000430405003E0404003A04050035040520
:100DC00000300404002C040500270404002304055B
:100DD000001E0404001A0404001604050011040493
:100DE000000D0404000904050004040400000404C8
:100DF00000FC030400F8030400F4030400F00304FF
:100E000000EC030400E8030400E4030400E003042E
:100E100000DC030400D8030400D4030400D003045E
:100E200000CC030400C8030300C503030024F4043A
:100E3000D9201BC40C5C0E9804C4095F02650771BD
:100E400001F405F900FB04B30048048700C10369FD
:100E5000005803550003034500BE023A00840231E6
:100E60000053022A002902250004022000E4011C8C
:100E700000C8011900AF0117009801140084011384
:100E800000710110006101100051010E0043010DBD
:100E90000036010B002B010B0020010B001501098E
:100EA000000C01090003010800FB000800F3000822
:100EB00000EB000700E4000600DE000600D8000694
:100EC00000D2000600CC000500C7000500C20005E6
:100ED00000BD000400B9000400B5000400B1000426
:100EE00000AD000400A9000400A5000300A2000357
:100EF000009F0004009B000300980003009500027F
:100F00000093000300900003008D0002008B00039B
:100F100000880002008600020084000300810002B5
:100F2000007F0002007D0002007B000200790002C9
:100F300000770001007600020074000200720001D8
:100F400000710002006F0002006D0001006C0002E1
:100F5000006A0001006900020067000100660001EC
:100F600000650001006400020062000100610001F0
:100F700000600001005F0002005D0001005C0001F4
:100F8000005B0001005A00010059000100580001F7
:100F900000570001005600010055000100540001F7
:100FA00000530000005300010052000100510001F5
:100FB00000500001004F0001004E0000004E0001F3
:100FC000004D0001004C0001004B0000004B0001EF
:100FD000004A0001004900010048000000480001EB
:100FE00000470001004600000046000100450000E7
:100FF00000450001004400010043000000430001DF
:1010000000420000004200010041000000410001D8
:1010100000400001003F0000003F0001003E0000D2
:10102000003E0001003D0000003D0001003C0000CA
:10103000003C0000003C0001003B0000003B0001C0
:10104000003A0000003A00010039000000390001B8
:1010500000380000003800000038000100370000B0
:1010600000370001003600000036000000360001A5
:10107000003500000035000000350001003400009C
:101080000034000000340001003300000033000091
:101090000033000100320000003200000032000185
:1010A000003100000031000000310001003000007C
:1010B0000030000000300001002F0000002F000071
:1010C000002F0000002F0001002E0000002E000065
:1010D000002E0001002D0000002D0000002D00005A
:1010E000002D0001002C0000002C0000002C00004E
:1010F000002C0001002B0000002B0000002B000042
:10110000002B0001002A0000002A0000002A000035
:10111000002A000100290000002900000029000029
:10112000002900000029000100280000002800001C
:10113000002800000028000000280001002700000F
:101140000027000000270000002700000027000102
:1011500000260000002600000026000000260000F7
:1011600000260001002500000025000000250000E9
:1011700000250000002500000025000100240000DB
:1011800000240000002400000024000000240001CE
:1011900000230000002300000023000000230000C3
:1011A00000230000002300000023000100220000B3
:1011B00000220000002200000022000000220000A7
:1011C0000022000100210000002100000021000099
:1011D000002100000021000000210000002100018A
:1011E000002000000020000000200000002000007F
:1011F000002000000020000000200000002000016E
:10120000001F0000001F0000001F0000001F000062
:10121000001F0000001F0000001F0001001E000052
:10122000001E0000001E0000001E00000054686543
:10123000726D616C2052756E61776179005448451A
:10124000524D414C2052554E41574159004865611D
:1012500074696E67206661696C65640048656174D5
:10126000696E67206661696C6564004865617469D0
:101270006E67206661696C65640048656174696EBB
:1012800067206661696C6564004D494E54454D5058
:1012900020747269676765726564004572723A20EE
:1012A0004D494E54454D50004D415854454D5020E8
:1012B000747269676765726564004572723A204DA1
:1012C000415854454D50006265640A002C207379E2
:1012D0007374656D2073746F707065642120486548
:1012E000617465725F49443A200023646566696EE3
:1012F00065202044454641554C545F4B64200023F3
:10130000646566696E65202044454641554C545FCE
:101310004B69200023646566696E6520204445465C
:1013200041554C545F4B7020005049442041757426
:101330006F74756E652066696E69736865642120D7
:1013400050757420746865206C617374204B702C28
:10135000204B6920616E64204B6420636F6E737450
:10136000616E74732066726F6D2062656C6F77209A
:10137000696E746F20436F6E666967757261746918
:101380006F6E2E680A00504944204175746F747561
:101390006E65206661696C6564212074696D656F96
:1013A00075740A00504944204175746F74756E65F8
:1013B000206661696C6564212054656D7065726199
:1013C0007475726520746F6F20686967680A002001
:1013D0004B643A2000204B693A2000204B703A20A1
:1013E0000020436C617373696320504944200A00F4
:1013F0002054753A2000204B753A2000206D61780A
:101400003A2000206D696E3A200020643A200020C6
:10141000626961733A200070012C0190012701B0CC
:10142000012201C0011D01F0011801100213013059
:10143000020E016002090190020401C002FF0000D7
:1014400003FA004003F5008003F000D003EB002016
:1014500004E6007004E100E004DC004005D700C0B1
:1014600005D2004006CD00D006C8008007C300307A
:1014700008BE00F008B900C009B400B00AAF00B05F
:101480000BAA00D00CA500000EA000500F9B00C0BE
:101490001096005012910000148C00C0158700B007
:1014A000178200B0197D00D01B7800001E73004029
:1014B000206E0090226900F024640040275F0090B5
:1014C000295A00E02B5500102E500020304B001000
:1014D000324600E033410090353C00103737007051
:1014E000383200A0392D00B03A2800A03B2300601C
:1014F0003C1E00103D1900903D1400103E0F00707E
:101500003E0A00C03E0500003F000000000A0B023A
:10151000090C0D0E08070304010000000000000084
:1015200000000000000000000000000000000000BB
:101530000000000000000012111000000000000078
:10154000000000000000000000000000000000009B
:1015500000010210202008081020401020408002C6
:1015600001020108040201010204081020408080E9
:10157000402010080402018004020180402010086D
:101580000402010804020101020408102040800145
:101590000204081020408005050505070508080815
:1015A00008020202020A0A080804040404010101F4
:1015B00001010101010303030303030303040707FC
:1015C000070C0C0C0C0C0C0C0C020202020606069A
:1015D00006060606060B0B0B0B0B0B0B0B00002075
:1015E000002300260029002C002F003200000100FB
:1015F0000003010601090100002200250028002B3C
:10160000002E003100340002010000050108010B2A
:101610000100002100240027002A002D00300033A3
:101620000001010000040107010A014E414E494E2C
:10163000495459494E46CDCCCC3D0AD7233C17B727
:10164000D13877CC2B329595E6241FB14F0A000094
:1016500020410000C84200401C4620BCBE4CCA1BB2
:101660000E5AAEC59D74D42CDD4311241FBECFEF9E
:10167000D1E2DEBFCDBF00E00CBF13E0A0E0B2E0DE
:10168000E6E8FBEC00E00BBF02C007900D92A2372A
:10169000B107D9F72DE0A2E7B3E001C01D92A03752
:1016A000B207E1F716E1CAE6D6E100E006C02297EC
:1016B0000109FE010BBF0E94EA5EC636D10780E039
:1016C0000807A9F70E94725A0C94C1650C94000097
:1016D0001F920F920FB60F9211240BB60F922F93F9
:1016E0003F938F939F93EF93FF932091C6009FB7F3
:1016F000F894E091F30381E08E0F8F773091F4033B
:10170000831731F0F0E0ED58FC4F20838093F30312
:101710009FBFFF91EF919F918F913F912F910F90DC
:101720000BBE0F900FBE0F901F9018959A01AB0142
:10173000211581EE38074105510549F182E080937A
:10174000C00060E079E08DE390E00E94A35E21504C
:10175000310941095109CA01B90122E030E040E0F4
:1017600050E00E94A35E3093C5002093C400809196
:10177000C10080618093C1008091C1008860809326
:10178000C1008091C10080688093C10008951092CB
:10179000C00020E130E0E7CF8091C00087FF14C097
:1017A0002091C6009FB7F894E091F30381E08E0F7B
:1017B0008F773091F403831731F0F0E0ED58FC4F50
:1017C00020838093F3039FBF08953FB7F89420913F
:1017D000F4038091F303821759F0E22FF0E0ED5803
:1017E000FC4F808190E02F5F2F772093F40302C09D
:1017F0008FEF9FEF3FBF08952FB7F8948091F303C9
:101800009091F4032FBF891B8F7708958FB7F894B9
:101810009091F4039093F3038FBF08958091C000DB
:1018200085FFFCCF6093C60008954F925F926F9240
:101830007F928F929F92AF92BF92CF92DF92EF9260
:10184000FF920F931F93CF93DF93CDB7DEB7A0978F
:101850000FB6F894DEBF0FBECDBF5C014115510538
:1018600061057105C1F460E3A0960FB6F894DEBF80
:101870000FBECDBFDF91CF911F910F91FF90EF90E1
:10188000DF90CF90BF90AF909F908F907F906F90A0
:101890005F904F90C3CF8E010F5F1F4FC12CD12C93
:1018A00076014801422E512C612C712C8FEFC81A01
:1018B000D80AE80AF80ACB01BA01A30192010E94F2
:1018C000815ECA01F80161938F01A901BC01411534
:1018D00051056105710551F7F1E0CF1AD108E10812
:1018E000F108F401EC0DFD1D60816A3010F4605DBB
:1018F00001C0695CC50192DF81E0C81AD108E10826
:10190000F108EFEFCE16DE06EE06FE0651F7A096C2
:101910000FB6F894DEBF0FBECDBFDF91CF911F9100
:101920000F91FF90EF90DF90CF90BF90AF909F907E
:101930008F907F906F905F904F90089521153105A3
:1019400011F4642F6BCF71CFCF92DF92EF92FF92A1
:10195000CF93DF93EC016A017B0177FF0AC06DE250
:101960005DDFF094E094D094C094C11CD11CE11CC4
:10197000F11C2AE0B701A601CE01DF91CF91FF90C3
:10198000EF90DF90CF9051CF2115310511F4642FE6
:1019900045CF2A30310509F4D7CF47CF9A01AB01A3
:1019A000662757FD6095762FEFCFCF93DF93EC013D
:1019B0006DE034DF6AE0CE01DF91CF912FCFCF937E
:1019C000DF93EC019A01AB0160E070E0B7DFCE017C
:1019D000DF91CF91EACF8F929F92AF92BF92CF9239
:1019E000DF92EF92FF921F93CF93DF93EC016A0196
:1019F0007B01122F20E030E0A901C701B6010E944F
:101A00005A5B87FF07C06DE2CE0108DFF7FAF0945A
:101A1000F7F8F094B12C60E070E080E09FE3B1163D
:101A200041F020E030E040E251E40E94615BB39479
:101A3000F6CF9B01AC01C701B6010E94815A6B0130
:101A40007C010E94CE5B4B015C010E94FA5B9B0112
:101A5000AC01C701B6010E94805A6B017C012AE0EB
:101A6000B501A401CE01E1DE112319F06EE2CE0131
:101A7000D5DE112319F120E030E040E251E4C70146
:101A8000B6010E94985D6B017C010E94C95B4B010D
:101A9000AA2497FCA094BA2CB501A401CE0154DF6E
:101AA000C501B4010E94FC5B9B01AC01C701B601FA
:101AB0000E94805A6B017C011150DBCFDF91CF91E6
:101AC0001F91FF90EF90DF90CF90BF90AF909F90CD
:101AD0008F90089580CFFC016591759185919491C7
:101AE0000895CF92DF92EF92FF920F931F93CF93BF
:101AF000DF93EC01CC0FDD1FCC0FDD1FFE01E357A0
:101B0000FB4F20E030E0A9016081718182819381E7
:101B10000E94815AFE01E756FB4F208131814281AC
:101B200053810E94815A6B017C01CE018E5A984FDD
:101B3000D2DF8E010F571B4FA70196010E94815AD9
:101B4000F8016083718382839383CE018A5B984F0F
:101B5000C2DFC15FDD4FA70196010E94815A6883F1
:101B600079838A839B83DF91CF911F910F91FF909F
:101B7000EF90DF90CF900895CF93DF93CDE4D4E042
:101B8000FE016491662329F082E793E047DE219607
:101B9000F7CF4091550650915606609157067091C7
:101BA000580622E030E082E793E094DFC9E4D4E015
:101BB000FE016491662329F082E793E02FDE2196EF
:101BC000F7CF4091590650915A0660915B0670918B
:101BD0005C0622E030E082E793E07CDFC5E4D4E0FD
:101BE000FE016491662329F082E793E017DE2196D7
:101BF000F7CF40915D0650915E0660915F0670914F
:101C0000600622E030E082E793E064DFC1E4D4E0E4
:101C1000FE016491662329F082E793E0FFDD2196BF
:101C2000F7CF409161065091620660916306709112
:101C3000640622E030E082E793E04CDFDF91CF9151
:101C40000C94464B0E94FD57609373047093740488
:101C500080937504909376040895CF92DF92EF926B
:101C6000FF920F931F93CF93DF93EB01FC016081F1
:101C70007181828193812CE3C22ED12CE12CF12C35
:101C8000A70196010E94815E162F072FCA01B90194
:101C9000A70196010E94815EF62EE72ECA01B901C6
:101CA00028E130E040E050E00E94815EFB01C90184
:101CB0006DE671E00E946D5E9B014F2D5E2D21153A
:101CC0003105D9F00F931F93EF92FF92FF93EF939B
:101CD0009F938F933F932F9380E294E09F938F93F2
:101CE000DF93CF930E94FC628DB79EB70E960FB61E
:101CF000F8949EBF0FBE8DBF5BC00097C9F00F93D5
:101D00001F93EF92FF92FF93EF939F938F9380E146
:101D100094E09F938F93DF93CF930E94FC62EDB783
:101D2000FEB73C960FB6F894FEBF0FBEEDBF40C0A5
:101D30003097B9F00F931F93EF92FF92FF93EF93B9
:101D400084E094E09F938F93DF93CF930E94FC6293
:101D50008DB79EB70A960FB6F8949EBF0FBE8DBF83
:101D600027C0452BA9F00F931F93EF92FF928CEFA2
:101D700093E09F938F93DF93CF930E94FC62EDB724
:101D8000FEB738960FB6F894FEBF0FBEEDBF10C079
:101D90000F931F9388EF93E09F938F93DF93CF93DD
:101DA0000E94FC620F900F900F900F900F900F9079
:101DB000DF91CF911F910F91FF90EF90DF90CF9027
:101DC00008950F931F93CF93DF93EC018B01FE01D6
:101DD0006491662329F082E793E020DD2196F7CF16
:101DE0004AE050E0B80182E793E0DF91CF911F9184
:101DF0000F91D4CDCF92DF92EF92FF92CF93DF93EA
:101E0000EC016A017B01FE016491662329F082E7FF
:101E100093E004DD2196F7CF2AE030E0B701A60178
:101E200082E793E0DF91CF91FF90EF90DF90CF902A
:101E3000ABCDCF92DF92EF92FF92CF93DF93EC0185
:101E40006A017B01FE016491662329F082E793E039
:101E5000E5DC2196F7CF22E030E0B701A60182E76A
:101E600093E0DF91CF91FF90EF90DF90CF9032CE53
:101E7000CF92DF92EF92FF92CF93DF93EC016A0152
:101E80007B01FE016491662329F082E793E0C6DCC2
:101E90002196F7CF22E030E0B701A60182E793E078
:101EA000DF91CF91FF90EF90DF90CF9013CECF9244
:101EB000DF92EF92FF92CF93DF93EC016A017B01F7
:101EC000FE016491662329F082E793E0A7DC219666
:101ED000F7CF2AE030E0B701A60182E793E0DF9177
:101EE000CF91FF90EF90DF90CF9028CD21E636E0A4
:101EF0004DE556E069E576E085E596E00C944C42C8
:101F0000CF93DF931F921F92CDB7DEB780916A0DFA
:101F100090916B0D9E012F5F3F4F009719F4205752
:101F20003D4002C0281B390B3A83298389819A815D
:101F30000F900F90DF91CF9108950F931F93CF9340
:101F4000DF93FC01062F80818B3301F11091B004E7
:101F50001430E0F48091B104C82FD0E020E6829FD5
:101F6000C0011124BF0189549B4F0E94F562FE01FC
:101F7000E45AFB4F0083CE0101968370992780932A
:101F8000B1041F5F1093B00481E001C080E0DF91D5
:101F9000CF911F910F9108950F931F93CF93DF93CC
:101FA0008C01CBDF882359F1CEE5D7E0FE016491A7
:101FB000662329F082E793E031DC2196F7CFC2E176
:101FC000D7E0FE016491662329F082E793E026DCE6
:101FD0002196F7CFE8016991662321F082E793E02B
:101FE0001DDCF9CFCFE0D7E0FE016491662329F034
:101FF00082E793E013DC2196F7CF81E001C080E017
:10200000DF91CF911F910F910895DF92EF92FF9290
:102010000F931F93CF93DF93CDB7DEB76E970FB6B5
:10202000F894DEBF0FBECDBF609177047091780445
:102030006115710559F14DE150E08E010F5F1F4FA1
:10204000C8010E94B8621E8EF8017F01E01AF10AF1
:10205000D190DD2019F08AE0D812F7CFF801EE0D0B
:10206000FF1D108260E0C80197DF882379F0DD2032
:10207000B1F08FEFE81AF80A809177049091780414
:102080008E0D9F1D909378048093770481E02091BA
:10209000770430917804232B39F480E005C0109246
:1020A000780410927704F2CF6E960FB6F894DEBFE4
:1020B0000FBECDBFDF91CF911F910F91FF90EF9099
:1020C000DF900895269A2E9808951F93CF93DF935B
:1020D000F9DF40E950ED63E070E082E793E026DB52
:1020E000C8E0D7E0FE016491662329F082E793E01F
:1020F00095DB2196F7CFCEE5D7E0FE01649166230C
:1021000029F082E793E08ADB2196F7CF14B710FD20
:1021100003C011FD0FC00BC0CFEFD6E0FE016491EC
:102120006623B9F382E793E079DB2196F7CF12FDBE
:102130000FC00BC0CEEED6E0FE0164916623B9F36A
:1021400082E793E06BDB2196F7CF13FD0FC00BC046
:10215000CCEDD6E0FE0164916623B9F382E793E00B
:102160005DDB2196F7CF15FD10C00BC0CBECD6E0A0
:10217000FE0164916623B9F382E793E04FDB219679
:10218000F7CF14BEC3EBD6E00BC0CAEBD6E0FE011E
:1021900064916623B1F382E793E040DB2196F7CFA9
:1021A000FE016491662329F082E793E037DB2196F4
:1021B000F7CFC7EAD6E0FE016491662329F082E7F3
:1021C00093E02CDB2196F7CFCEE5D7E0FE016491BA
:1021D000662329F082E793E021DB2196F7CFC7E958
:1021E000D6E0FE016491662329F082E793E016DBD6
:1021F0002196F7CFC6E8D6E0FE016491662329F068
:1022000082E793E00BDB2196F7CFCAE7D6E0FE0129
:102210006491662329F082E793E000DB2196F7CFF3
:10222000C2E6D6E0FE016491662329F082E793E0DE
:10223000F5DA2196F7CFC7E5D6E0FE016491662373
:1022400029F082E793E0EADA2196F7CFCAE4D6E0F4
:10225000FE016491662329F082E793E0DFDA21969C
:10226000F7CFCEE5D7E0FE016491662329F082E73F
:1022700093E0D4DA2196F7CFCBE3D6E0FE01649168
:10228000662329F082E793E0C9DA2196F7CF38DE9A
:102290004AE050E0BC0182E793E080DBC4E2D6E094
:1022A000FE016491662329F082E793E0B7DA219674
:1022B000F7CF4AE050E060ED74E082E793E06EDB38
:1022C0006AE082E793E0AADA81E080935C0480937D
:1022D0005D0480935E0480935F040E94DF2C80E0A5
:1022E0000E942D2E8CE0EDE8F4E0A5E5B6E001902B
:1022F0000D928A95E1F7FADD80E69DE00E944D4F50
:102300000E94A757DF91CF911F910C94114A0F9310
:102310001F93CF93DF930091790410917A0465E4C1
:1023200070E0C8010E94E162EC01C80101962097AB
:1023300061F0188260E070E00E94EE5E25E4288380
:10234000DF91CF911F910F91089560E070E0DF91D0
:10235000CF911F910F910C94EE5E80917904909132
:102360007A044AE050E060E070E001960C948761E6
:102370008091790490917A044AE050E060E070E046
:1023800001960E945660CB01089580917904909146
:102390007A044AE050E060E070E001960E948761B4
:1023A000CB0108958091790490917A044AE050E03D
:1023B00060E070E001960E94566097FD20C0809119
:1023C000790490917A044AE050E060E070E0019670
:1023D0000E9456606F3F71058105910509F064F414
:1023E0008091790490917A044AE050E060E070E0D6
:1023F00001960E94566001C06FEF862F089580E01D
:10240000089585CF84CF682F772767FD70958091D9
:10241000B3049091B4040E94E16290937A04809393
:10242000790421E0892B09F420E0822F08950F938D
:102430001F93CF93DF938C0184E5E5DF882331F18F
:10244000B1DF882309F1CEE5D7E0FE016491662370
:1024500029F082E793E0E2D92196F7CF6DE482E795
:1024600093E0DCD94AE050E0B80182E793E096DAE5
:1024700099DF682F70E086EE94E0A3DC6AE082E7E3
:1024800093E0CCD981E007C08DDF02C080917E044B
:102490008093600480E0DF91CF911F910F910895A8
:1024A000CF92EF92FF920F931F9320E030E040E72E
:1024B00052E4609127027091280280912902909144
:1024C0002A020E94615BC0907E047B018C0121E6A0
:1024D00036E04DE556E069E576E085E596E00E9458
:1024E00041381F910F91FF90EF90CF9008958F92F8
:1024F0009F92AF92BF92CF92EF92FF920F931F9352
:10250000CF93DF9379018090270290902802A090CA
:102510002902B0902A02EC01CC0FDD1FCC0FDD1F89
:10252000FE01EB5AF94F408351836283738320E0AD
:1025300030E0A901B801C7010E945A5B811106C0B1
:10254000CD5FDC4F08811981EA80FB80C801D7018B
:102550008093270290932802A0932902B0932A0225
:1025600020E030E040E752E4B801C7010E94615B1F
:10257000C0907E047B018C0121E636E04DE556E0FB
:1025800069E576E085E596E00E9441380E94874A39
:102590008092270290922802A0922902B0922A02E9
:1025A000DF91CF911F910F91FF90EF90CF90BF904F
:1025B000AF909F908F9008952F923F924F925F928D
:1025C0006F927F928F929F92AF92BF92CF92DF9243
:1025D000EF92FF920F931F93CF93DF9300D000D021
:1025E000CDB7DEB77C01FC01E15EF84F14916C01C0
:1025F000CC0CDD1CCC0CDD1CC6018B5A994F1C0188
:10260000FC01108211821282138270DCC601825D8D
:10261000984F61DA4B015C01612F772767FD709558
:10262000872F972F0E94FC5B2B013C0120E030E0BC
:1026300040EC5FE3C501B4010E94985DA3019201E3
:102640000E94985DAB01BC0100E010E09801C70159
:102650004EDFF101108211821282138247DCC60123
:102660008E5D984F1C0137DA9058A30192010E94A9
:10267000985DAB01BC0100E010E09801C70137DFB5
:1026800086E0E9E5F2E0DE01119601900D928A956F
:10269000E1F7F701EE0FFF1F81E090E08C0F9D1F27
:1026A000E80FF91F6081718116161706D4F00EE548
:1026B00017E0F8016491662331F082E793E0AED829
:1026C0000F5F1F4FF6CF00E514E0F8016491662319
:1026D00031F082E793E0A2D80F5F1F4FF6CF6AE098
:1026E00070E086010D5F1C4F882777FD8095982F3D
:1026F0000E94FC5B9B01AC01F801608171818281C9
:1027000093810E94615B4B015C01C101E4D99B0193
:10271000AC010E94815AA30192010E94985DAB0115
:10272000BC0195018401C701E2DEC60187569B4FBB
:102730005C01FC011082118212821382C601865C48
:10274000984FC9D986010B5A194FF601E357FB4F31
:1027500020813181428153810E94815AF50120817B
:102760003181428153810E94815AF80160837183D3
:1027700082839383C701B5D9B9DB96012B5B394FAF
:10278000F80180819181A281B381F90180839183D5
:10279000A283B38310926806F701EE5BF94F81E0E4
:1027A0008083F701E15CF94F808326960FB6F89499
:1027B000DEBF0FBECDBFDF91CF911F910F91FF9074
:1027C000EF90DF90CF90BF90AF909F908F907F90D1
:1027D0006F905F904F903F902F900895CF92EF921F
:1027E000FF920F931F9320E030E040E752E40E94F5
:1027F000615BC0907E047B018C0121E536E04DE4F5
:1028000056E069E476E085E496E00E9441381F9145
:102810000F91FF90EF90CF90089580E1E5E4F6E00E
:10282000A5E5B6E001900D928A95E1F70895CF9263
:10283000DF92EF92FF920F931F93CF93DF936FEF8F
:10284000E62E62E0F62E05E416E0C5E5D6E076EA6F
:10285000C72E74E0D72EF70181917F01D4DD882344
:10286000C9F055DDF6012081211104C020917D04BD
:10287000222329F0288139814A815B8103C020E02D
:1028800030E0A9010E94815AF8016083718382833C
:10289000938309C088819981AA81BB81F8018083D3
:1028A0009183A283B3830C5F1F4F2496FFEFCF1A4F
:1028B000DF0A83E0E81683E0F80669F686E4A3DD24
:1028C000882389F024DD20E030E0A9010E945D5DCD
:1028D00018164CF41CDD6093270270932802809335
:1028E000290290932A02DF91CF911F910F91FF90BF
:1028F000EF90DF90CF900895CF93DF93CEE5D7E0B0
:10290000FE016491662331F082E793E00E940E0C91
:102910002196F6CFC3EDD4E0FE016491662331F039
:1029200082E793E00E940E0C2196F6CFC091B50489
:10293000D091B6046991662329F082E793E00E9462
:102940000E0CF8CFC0EDD4E0FE016491662331F0A7
:1029500082E793E00E940E0C2196F6CFDF91CF9193
:102960000895CF92DF92EF92FF92CF93DF930E9470
:10297000FD576B017C0180910602882309F46FC02A
:1029800020915A0430915B042115310509F467C088
:102990008091560490915704A0915804B091590425
:1029A000B701A601481B590B6A0B7B0B77FD6AC068
:1029B0002330310579F03CF4213031050CF44FC05F
:1029C000CEE5D7E00AC02430310509F048C0CEE595
:1029D000D7E02FC0CEE5D7E016C0FE016491662394
:1029E00031F082E793E00E940E0C2196F6CFCEEBF9
:1029F000D4E0FE016491662391F182E793E00E94A6
:102A00000E0C2196F6CFFE016491662331F082E729
:102A100093E00E940E0C2196F6CFC7EAD4E0FE01A7
:102A200064916623E1F082E793E00E940E0C219608
:102A3000F6CFFE016491662331F082E793E00E94B5
:102A40000E0C2196F6CFCFE8D4E0FE016491662308
:102A500031F082E793E00E940E0C2196F6CF209190
:102A6000060230E0A8EEB3E00E94C55E6C0D7D1D4D
:102A70008E1D9F1D609356047093570480935804D5
:102A800090935904DF91CF91FF90EF90DF90CF901A
:102A900008952F923F924F925F926F927F928F9202
:102AA0009F92AF92BF92CF92DF92EF92FF920F93DD
:102AB0001F93CF93DF93CDB7DEB728970FB6F89467
:102AC000DEBF0FBECDBF0E94874A80912702909142
:102AD0002802A0912902B0912A028093AC0490931D
:102AE000AD04A093AE04B093AF0480912502909101
:102AF00026029093AB048093AA0484E690E090931E
:102B00002602809325029ED801E000932C0288E5DE
:102B10007ADC182F89E577DC382E8AE574DC282EDC
:102B2000111104C0311004C0802703C0311001C04E
:102B300080E08093090290E1E5E5F6E0A5E4B6E0E7
:102B400001900D929A95E1F7811105C0111103C012
:102B5000332009F4C0C020E030E040EA50E4609146
:102B600095047091960480919704909198040E9426
:102B7000815A2091A1043091A2044091A304509164
:102B8000A4040E94815A6B017C0160934D067093EE
:102B90004E0680934F069093500680905D0690906D
:102BA0005E06A0905F06B0906006A50194010E94A9
:102BB0005D5D18160CF08FC08091590690915A06F1
:102BC000A0915B06B0915C0689839A83AB83BC833A
:102BD00040905506509056066090570670905806E3
:102BE0008091270290912802A0912902B0912A0297
:102BF0008D839E83AF83B887A7019601C501B40179
:102C00000E945A5B87FF15C080E090E0A0E7B3E424
:102C10008093270290932802A0932902B0932A025E
:102C2000C0925D06D0925E06E0925F06F09260066A
:102C300037DC80E090E0AAEFB5E480932702909320
:102C40002802A0932902B0932A024092550650927E
:102C50005606609257067092580689819A81AB8118
:102C6000BC818093590690935A06A0935B06B0935B
:102C70005C0616DCA701960160915D0670915E0608
:102C800080915F06909160060E945D5D1816ACF41D
:102C900080E090E0A0E7B3E48093270290932802BD
:102CA000A0932902B0932A02C0925D06D0925E06DC
:102CB000E0925F06F0926006F3DB0E94874A8D8106
:102CC0009E81AF81B8858093270290932802A093BC
:102CD0002902B0932A0280910902811102C01123B6
:102CE00019F080E090E068DC80910902811102C057
:102CF000332019F081E090E05FDC809109028111BE
:102D000002C0222019F082E090E056DCEFD88091DA
:102D1000690680932C02109268068091AC04909111
:102D2000AD04A091AE04B091AF04809327029093BC
:102D30002802A0932902B0932A028091AA049091BC
:102D4000AB0490932602809325020E94220E2896BF
:102D50000FB6F894DEBF0FBECDBFDF91CF911F91AC
:102D60000F91FF90EF90DF90CF90BF90AF909F902A
:102D70008F907F906F905F904F903F902F900C942A
:102D8000BC0D8F929F92AF92BF92CF92DF92EF9243
:102D9000FF920F931F93CF93DF9300D01F92CDB775
:102DA000DEB785E430DBB82E811102C00E94874A6D
:102DB000EFEFCE2EE2E0DE2EF9E9EF2EF4E0FF2E6B
:102DC00005E516E0812C912CA12CF60181916F0173
:102DD0001ADB882359F1F801208131814281538126
:102DE00029833A834B835C8392DAF8016083718391
:102DF0008283938329813A814B815C81F3E08F1632
:102E0000A9F00E94805A9B01AC01F7016081718199
:102E1000828193810E94815AF7016083718382834A
:102E20009383C4010E94710DAA24A394FFEF8F1A0B
:102E30009F0A84E0E80EF11C0C5F1F4FE4E08E1641
:102E4000910419F6AA2089F00F900F900F900F901F
:102E5000DF91CF911F910F91FF90EF90DF90CF9076
:102E6000BF90AF909F908F9041C8BB20A1F081E6AA
:102E700096E00F900F900F900F90DF91CF911F91E0
:102E80000F91FF90EF90DF90CF90BF90AF909F9009
:102E90008F900C9416430F900F900F900F90DF912E
:102EA000CF911F910F91FF90EF90DF90CF90BF9047
:102EB000AF909F908F9008950F931F93CF93DF93C0
:102EC000CDB7DEB769970FB6F894DEBF0FBECDBFA2
:102ED00081E694E00E94FB4B6E8B7F8B888F998FED
:102EE000BE016F5F7F4FCE0146960E942D0E0EE50C
:102EF00017E0F8016491662339F082E793E00E94BD
:102F00000E0C0F5F1F4FF5CF04E314E0F80164913E
:102F1000662339F082E793E00E940E0C0F5F1F4F8B
:102F2000F5CF8E010F5F1F4FF80161918F0166236E
:102F300029F082E793E00E940E0CF6CF6AE082E768
:102F400093E00E940E0C809194068823F9F0109271
:102F500094066091540D7091550D882777FD8095EA
:102F6000982F0E94FC5B20913102309132024091F7
:102F70003302509134020E945D5D18163CF41092A9
:102F8000550D1092540D80E00E94CF4F69960FB6F8
:102F9000F894DEBF0FBECDBFDF91CF911F910F918F
:102FA00008950F931F93CF93DF9383E52CDA882343
:102FB00071F1DED98C018F3F910509F040F580E574
:102FC00022DA882329F0D4D9EC0197FD20C002C071
:102FD000CDE0D0E0EFEAF2E081919191C817D907F6
:102FE000B1F082E0EF3FF807B9F761E08C2F0E9463
:102FF000DB59602F8C2F0E94145AB8018C2F0E942D
:10300000C558299721F41093800400937F04DF9121
:10301000CF911F910F91089588E690E008DA811111
:1030200020C08091650683FD1CC083E5ECD9882310
:10303000C1F06DD90E94C95B7093550D6093540D1A
:1030400080E00E94CF4F63D920E030E04AEA52E4AA
:103050000E945A5B181624F081E694E00E94CE4B41
:1030600056C90895CF93DF93CBE8D4E0FE01649175
:10307000662331F082E793E00E940E0C2196F6CF92
:1030800040915C0D50915D0D60915E0D70915F0DF2
:1030900021E030E082E793E00E946A0DC8E8D4E0C6
:1030A000FE016491662331F082E793E00E940E0CEA
:1030B0002196F6CF6091540D7091550D882777FDBC
:1030C0008095982F0E94FC5BAB01BC0121E030E0B1
:1030D00082E793E00E946A0DC4E8D4E0FE016491A7
:1030E000662331F082E793E00E940E0C2196F6CF22
:1030F0008091600490E00E94144D4AE050E0BC01D1
:1031000082E793E00E94CE0C6AE082E793E0DF91D1
:10311000CF910C940E0CDF92EF92FF920F931F93BE
:10312000CF93DF9383E56FD9882311F03BD901C09A
:1031300080E080936506CEE5D7E0FE0164916623CA
:1031400031F082E793E00E940E0C2196F6CFC1EF9A
:10315000D3E0FE016491662331F082E793E00E94A0
:103160000E0C2196F6CF80916506811103C0C3EE47
:10317000D3E03EC007EE13E0C0E0D0E020E0809155
:10318000650690E00C2E02C0959587950A94E2F7AB
:1031900080FF19C0DD24D394D20E222329F06CE2E3
:1031A00082E793E00E940E0CF801E590F490F7019D
:1031B0006491662349F082E793E00E940E0C3FEF92
:1031C000E31AF30AF4CFD22E21960E5F1F4FC530BB
:1031D000D10561F46AE082E793E0DF91CF911F911E
:1031E0000F91FF90EF90DF900C940E0C2D2DC7CF18
:1031F000FE016491662371F382E793E00E940E0C56
:103200002196F6CFCF93DF9383E5FDD8811103C0DC
:10321000CEE5D7E009C0C6D88D3308F08CE38093A3
:103220000602DF91CF910895FE016491662331F08B
:1032300082E793E00E940E0C2196F6CF40910602A1
:1032400050E060E070E08DEA93E00E94570F6AE082
:1032500082E793E0DF91CF910C940E0C83E5D3D8F5
:10326000882391F054D820E030E04AE754E40E94EB
:10327000985D0E94CE5B60930A0270930B0280936C
:103280000C0290930D02089588E5BDD881110EC0FF
:1032900089E5B9D881110AC08AE5B5D8811106C07F
:1032A00085E4B1D8811102C00C94034B0E94874A77
:1032B00088E5A9D8882319F05F9A1092420689E51B
:1032C000A2D8882319F08A9A109243068AE59BD8DF
:1032D000882351F09FB7F894809108018160809312
:1032E00008019FBF1092440685E48DD8882311F011
:1032F000129A089508953F924F925F926F927F9233
:103300008F929F92AF92BF92CF92DF92EF92FF92F5
:103310000F931F93CF93DF93AFEF8A2EA2E09A2EE5
:10332000C9EED6E0B9EFAB2EB6E0BB2E09EC16E045
:10333000312CF40181914F0166D8882309F458C0DB
:10334000F3E03F124FC00E9487116B017C0120E027
:1033500030E040EA51E40E945A5B87FF3EC0A7017B
:103360009601688179818A819B810E94615B2B0132
:103370003C019B01AC016091990670919A06809185
:103380009B0690919C060E94985D609399067093AD
:103390009A0680939B0690939C06A3019201F501E7
:1033A00060817181828193810E94985DF5016083C3
:1033B000718382839383F80160817181828193811B
:1033C0000E94FA5BA30192010E94985D0E94CE5B6D
:1033D000F8016083718382839383C882D982EA82F1
:1033E000FB8206C00E948711688379838A839B834E
:1033F00033942496F4E0AF0EB11C0C5F1F4F84E0B1
:10340000381297CFDF91CF911F910F91FF90EF90DE
:10341000DF90CF90BF90AF909F908F907F906F90F4
:103420005F904F903F900C94834383E50E9403127A
:103430008823E9F00E948711AB01BC014093AD06DF
:103440005093AE066093AF067093B0064093A50606
:103450005093A6066093A7067093A80681EB92E0AE
:103460000E94190F6AE082E793E00E940E0C80E54B
:103470000E9403128823A9F00E948711AB01BC01AE
:103480004093AD065093AE066093AF067093B006BE
:1034900084E992E00E94190F6AE082E793E00E94BB
:1034A0000E0C82E50E9403128823A9F00E94871166
:1034B000AB01BC014093A9065093AA066093AB06EA
:1034C0007093AC0685E792E00E94190F6AE082E7EC
:1034D00093E00E940E0C84E50E9403128823A9F059
:1034E0000E948711AB01BC014093A5065093A6062C
:1034F0006093A7067093A80687E592E00E94190FD3
:103500006AE082E793E00C940E0C089583E50E9434
:103510000312882351F00E9487116093B1067093C3
:10352000B2068093B3069093B40684E50E9403121A
:10353000882351F00E948711609395067093960638
:10354000809397069093980682E40E940312882342
:1035500051F00E94AD116093B5067093B60680934A
:10356000B7069093B80688E50E940312882351F0AD
:103570000E9487116093A1067093A2068093A30610
:103580009093A4068AE50E940312882351F00E94BA
:10359000871160939D0670939E0680939F0690937B
:1035A000A00685E40E940312882351F00E9487112F
:1035B0006093990670939A0680939B0690939C065D
:1035C00008958F929F92AF92BF92CF92DF92EF9227
:1035D000FF920F931F93CF93DF93CFEFCC2EC2E0D8
:1035E000DC2ED5E5ED2ED6E0FD2E0DE814E0C0E092
:1035F000D0E0F60181916F010E940312882309F146
:103600000E9487114B015C01F801208131814281C8
:1036100053810E94805A9B01AC01F7016081718146
:10362000828193810E94815AF70160837183828332
:103630009383F80180829182A282B382CE010E949C
:10364000710D2196F4E0EF0EF11C0C5F1F4FC3309B
:10365000D10579F60E94760FDF91CF911F910F91DE
:10366000FF90EF90DF90CF90BF90AF909F908F90A2
:103670000C94BC0DCF93DF9385E40E94031281115B
:1036800010C080E50E940312882399F00E948711E0
:10369000609355027093560280935702909358029C
:1036A00008C00E94B811181619065CF7C4E6D7E0E6
:1036B000D9C089E40E940312882381F00E948711F7
:1036C0002CE933E549E45EE30E94985D6093510282
:1036D00070935202809353029093540284E40E94A8
:1036E0000312882381F00E9487112CE933E549E415
:1036F0005EE30E94615B60934D0270934E02809383
:103700004F029093500283E40E940312882351F0E9
:103710000E9487116093490270934A0280934B0282
:1037200090934C028CE40E940312882341F00E9483
:1037300087110E94C95B7093080260930702809111
:10374000070290910802C39734F082E390E09093CF
:103750000802809307020E94F54CCEE5D7E0FE01F7
:103760006491662331F082E793E00E940E0C21966B
:10377000F6CFC3E5D2E0FE016491662331F082E723
:1037800093E00E940E0C2196F6CF40915502509185
:103790005602609157027091580222E030E082E7B1
:1037A00093E00E946A0DCFE4D2E0FE0164916623AB
:1037B00031F082E793E00E940E0C2196F6CF2CE9BF
:1037C00033E549E45EE360915102709152028091C9
:1037D0005302909154020E94615BAB01BC0122E054
:1037E00030E082E793E00E946A0DCBE4D2E0FE0174
:1037F0006491662331F082E793E00E940E0C2196DB
:10380000F6CF2CE933E549E45EE360914D02709117
:103810004E0280914F02909150020E94985DAB0140
:10382000BC0122E030E082E793E00E946A0DC7E429
:10383000D2E0FE016491662331F082E793E00E94BA
:103840000E0C2196F6CF4091490250914A026091A8
:103850004B0270914C0222E030E082E793E00E943C
:103860006A0D14C0FE016491662331F082E793E093
:103870000E940E0C2196F6CFCFE8D2E06991662324
:1038800029F082E793E00E940E0CF8CF6AE082E70D
:1038900093E0DF91CF910C940E0CCF93DF9383E5EF
:1038A0000E940312C82F8823A1F00E948711609301
:1038B0004502709346028093470290934802D1E0FC
:1038C00020E030E0A9010E945A5B8111D0E0D09342
:1038D000420D80E50E9403128823D1F020E030E001
:1038E000A901609145027091460280914702909132
:1038F00048020E945A5B882339F00E94D21191E05D
:10390000811103C090E001C091E09093420D34C05A
:10391000C11132C0CEE5D7E0FE016491662331F0DB
:1039200082E793E00E940E0C2196F6CF61E070E0F2
:1039300084E392E00E94E10E20E030E040E05FE3AB
:103940006091450270914602809147029091480231
:103950000E94815A0E94C95B83E292E00E94E10EBC
:10396000CFE1D2E0FE016491662331F082E793E07B
:103970000E940E0C2196F6CFDF91CF910895EF9221
:10398000FF920F93CF93DF9385E40E940312882365
:1039900021F00E94B811EC0102C0C0E0D0E083E445
:1039A0000E940312882321F00E94B8117C0103C0F9
:1039B00005E0E02EF12C85E50E940312882329F012
:1039C0000E94D21101E0811101C000E083E50E9454
:1039D0000312882319F00E94871106C0D7FD09C081
:1039E00060E070E086E193E4209739F4109260047F
:1039F00004C060E070E08CE892E410925B041092E6
:103A00005A049701AE010E94815081E090E09093AA
:103A10005B0480935A04DF91CF910F91FF90EF9058
:103A200008952F923F924F925F926F927F928F9262
:103A30009F92AF92BF92CF92DF92EF92FF920F933D
:103A40001F93CF93DF9300D000D0CDB7DEB78FE3C5
:103A500096E09A83898305E516E08DE8282E84E0B8
:103A6000382E1E821D82E981FA81EF53F640FC83D5
:103A7000EB83E981FA818191FA83E983882309F450
:103A80009BC0ED81FE81E15FFD4F2081318142814C
:103A90005381ED81FE81EF57FB4F608171818281FF
:103AA00093810E94815A20E030E040E05FE30E9471
:103AB000985D9B01AC01F8016081718182819381E5
:103AC0000E945D5D18163CF48D819E81865C984F46
:103AD0000E946B0D03C060E070E0CB01F8014080F4
:103AE000518062807380F101C080D180E280F380D8
:103AF000A70196010E94815AED81FE81E756FB4F96
:103B000020813181428153810E94815A9B01AC0105
:103B1000C301B2010E94805A4B015C0120E030E0F9
:103B200040EA51EC0E945D5D18161CF004E617E0B7
:103B30002BC020E030E040EA51E4C501B4010E940E
:103B40005A5B87FFF3CFA5019401C701B6010E941C
:103B5000805A4B015C01A70196010E94805A9B018B
:103B6000AC01C301B2010E94815AF80160837183E4
:103B700082839383F10180829182A282B3828B81BE
:103B80009C810E94710D18C0F8016491662339F080
:103B900082E793E00E940E0C0F5F1F4FF5CF01E00C
:103BA00012E0F8016491662391F182E793E00E94AC
:103BB0000E0C0F5F1F4FF5CF0C5F1F4F8D819E8145
:103BC00004969E838D8394E0290E311CED81FE8145
:103BD0003C9709F048CF0E94760F26960FB6F894CE
:103BE000DEBF0FBECDBFDF91CF911F910F91FF9030
:103BF000EF90DF90CF90BF90AF909F908F907F908D
:103C00006F905F904F903F902F900C94BC0D269634
:103C10000FB6F894DEBF0FBECDBFDF91CF911F91DD
:103C20000F91FF90EF90DF90CF90BF90AF909F905B
:103C30008F907F906F905F904F903F902F9008955E
:103C4000CF93DF9380937E04CEE5D7E0FE016491AD
:103C5000662331F082E793E00E940E0C2196F6CFA6
:103C6000C2E7D4E0FE016491662331F082E793E07D
:103C70000E940E0C2196F6CF60917E0470E04AE01F
:103C800050E082E793E00E94CE0C6AE082E793E086
:103C9000DF91CF910C940E0CCF93DF930E94220EF4
:103CA000E091B204F0E0E45AFB4F8081882399F060
:103CB000C5EFD1E0FE016491662331F082E793E025
:103CC0000E940E0C2196F6CF6AE082E793E0DF9126
:103CD000CF910C940E0CDF91CF910895CF93DF9389
:103CE00082E793E00E94060CC8EFD1E0FE016491E8
:103CF000662331F082E793E00E940E0C2196F6CF06
:103D000040913706509138066091390670913A0615
:103D10004F5F5F4F6F4F7F4F2AE030E082E793E0C5
:103D20000E94C40C6AE082E793E00E940E0CDF91CF
:103D3000CF91B2CFFF920F931F93CF93DF93EC01FC
:103D4000F62E04E617E0F8016491662339F082E765
:103D500093E00E940E0C0F5F1F4FF5CFFE016491A0
:103D6000662331F082E793E00E940E0C2196F6CF95
:103D700040913706509138066091390670913A06A5
:103D80002AE030E082E793E00E94C40C6AE082E718
:103D900093E00E940E0CF110A1DF10927C041092AF
:103DA0007B04DF91CF911F910F91FF900895CF92E7
:103DB000DF92EF92FF92CF93DF93EC01C0908104EA
:103DC000D0908204E0908304F0908404A7019601CF
:103DD000688179818A819B810E945A5B87FF04C038
:103DE000C882D982EA82FB82C0908504D090860482
:103DF000E0908704F0908804A70196016C817D8192
:103E00008E819F810E945A5B87FF04C0CC82DD8235
:103E1000EE82FF82C0908904D0908A04E0908B04E7
:103E2000F0908C04A7019601688579858A859B8529
:103E30000E945A5B87FF04C0C886D986EA86FB8643
:103E4000C0900F02D0901002E0901102F090120288
:103E5000A7019601688179818A819B810E945D5DBD
:103E6000181624F4C882D982EA82FB82C090130219
:103E7000D0901402E0901502F0901602A70196016E
:103E80006C817D818E819F810E945D5D181624F476
:103E9000CC82DD82EE82FF82C0901702D0901802A1
:103EA000E0901902F0901A02A701960168857985C1
:103EB0008A859B850E945D5D181624F4C886D98684
:103EC000EA86FB86DF91CF91FF90EF90DF90CF9055
:103ED0000895CF93DF93EC010E94ED4AFE01EE0FAF
:103EE000FF1FEE0FFF1FEB5AF94F60837183828330
:103EF0009383DF91CF9108950E94064B0E94874AD9
:103F000080E090E0E6DF81E090E0E3DF82E090E0B7
:103F1000E0DF0C94760F8F929F92AF92BF92CF9278
:103F2000DF92EF92FF920F931F93CF93DF93EC01F9
:103F30008B018091650683FD89C0FB0180809180A3
:103F4000A280B380288139814A815B81C501B40197
:103F50000E94805A6B017C0120E030E0A9010E94A0
:103F60005A5B882309F472C08091420D8823F9F0CE
:103F7000C701B6010E94C95B97FF07C09095809565
:103F8000709561957F4F8F4F9F4F613971408105CB
:103F900091050CF45BC0F80180819181A281B3810D
:103FA00088839983AA83BB83CEE5D7E039C020916B
:103FB000450230914602409147025091480260917B
:103FC0005C0D70915D0D80915E0D90915F0D0E9472
:103FD0005A5B87FFCDCF88829982AA82BB824EE549
:103FE000A42E47E0B42EF5016491662341F082E7E8
:103FF00093E00E940E0C2FEFA21AB20AF4CF3AED12
:10400000A32E31E0B32EF5016491662309F4B0CFFD
:1040100082E793E00E940E0CFFEFAF1ABF0AF3CFC6
:10402000FE016491662331F082E793E00E940E0C5A
:104030002196F6CFCBEBD1E0FE016491662331F0FF
:1040400082E793E00E940E0C2196F6CFDF91CF918C
:104050001F910F91FF90EF90DF90CF90BF90AF90A6
:104060009F908F90089585E496E0A1DE0E94220E35
:1040700061E576E081E696E04EDF209145063091DD
:10408000460640914706509148066091550670914A
:10409000560680915706909158060E945A5B8111EE
:1040A0001DC02091490630914A0640914B0650911F
:1040B0004C066091590670915A0680915B0690916A
:1040C0005C060E945A5B811109C0609127027091C1
:1040D00028028091290290912A021AC0609125023B
:1040E00070912602882777FD8095982F0E94FC5BAF
:1040F00020912702309128024091290250912A02F2
:104100000E94985D20E030E048EC52E40E94615B40
:104110000E94EE130C940D145F988A989FB7F89440
:10412000E8E0F1E080818E7F80839FBF1298089540
:104130005F9A109242068A9A109243069FB7F894AB
:10414000E8E0F1E08081816080839FBF10924406A7
:10415000129A0895C4E6D7E0FE016491662331F017
:1041600082E793E00E940E0C2196F6CFC2E9D1E0DF
:10417000FE016491662331F082E793E00E940E0C09
:104180002196F6CFC6E0D0E0219739F064E670E0E2
:1041900080E090E00E942C58F7CFF8940E9469507C
:1041A000C7DF60E08CE00E94DB59A895FECF8F92BC
:1041B0009F92AF92BF92DF92EF92FF920F931F9365
:1041C000CF93DF938091B004843008F02FC182E751
:1041D00093E00E94FC0B882309F428C182E793E056
:1041E0000E94E50B20917B0430917C048A3019F009
:1041F0008D3009F0ECC0109255042115310511F3F2
:10420000F901EB50FC4F108210927C0410927B0459
:1042100085EF93E07C01FC01208101962032D1F3EF
:10422000E7012E3411F0E12CF12C6AE270E0CE01AE
:104230000E94E1628C01E114F10409F474C06FE1A1
:1042400076E0CE010E94C762DD24D394892B11F45D
:10425000D12C09C06EE470E0CE0104960E94E162A8
:10426000009709F07C014AE050E060E070E0C7018F
:1042700001960E94566060933B0670933C068093C3
:104280003D0690933E068090370690903806A090A9
:104290003906B0903A06FFEF8F1A9F0AAF0ABF0A9D
:1042A000681579058A059B0531F0D11004C061E0DD
:1042B0008CEE95E03DC00115110501F180E0F12C77
:1042C000FE01E80FF11D90819A3219F08F5FF926F7
:1042D000F7CF4AE050E060E070E0C80101960E942C
:1042E00056600F2D10E020E030E060177107820764
:1042F000930741F061E08DEC95E01AC061E083EA3C
:1043000095E016C080913B0690913C06A0913D0639
:10431000B0913E068093370690933806A0933906F5
:10432000B0933A0611C0009779F060E089E795E014
:10433000DF91CF911F910F91FF90EF90DF90BF9091
:10434000AF909F908F90F6CC80912B0281111EC070
:1043500067E470E0CE010E94E1620097B9F04AE0A4
:1043600050E060E070E001960E9456606430710594
:1043700068F402E015E0F8016491662339F082E701
:1043800093E00E940E0C0F5F1F4FF5CF60EA72E0C2
:10439000CE010E94EC62892B11F410920E0265EAA4
:1043A00072E0CE010E94EC62892B19F489EF94E04F
:1043B000D1DE6AEA72E0CE010E94EC62892B09F438
:1043C0009BDD61E085EF93E00E949D0FFBCE2F35D2
:1043D00031050CF0F7CE8C35A1F482E793E00E9412
:1043E000FC0B882309F4EECE82E793E00E94E50BF4
:1043F000909155049111E6CE20917B0430917C047C
:1044000009C08B3319F491E09093550490915504B1
:104410009111D8CEA9014F5F5F4F50937C04409318
:104420007B04F901EB50FC4F8083CCCEDF91CF9120
:104430001F910F91FF90EF90DF90BF90AF909F90F2
:104440008F9008950E940510811101C0B0CE08958B
:10445000CF92DF92EF92FF920F931F93CF93C82FCB
:104460008091B004843008F4EDDF0E94FD57C090C5
:104470006F04D0907004E0907104F0907204C11445
:10448000D104E104F104B9F00091730410917404B3
:1044900020917504309176040C0D1D1D2E1D3F1DBD
:1044A0006B017C01C01AD10AE20AF30AF7FC03C0CF
:1044B00082EB91E04FDEC0900A02D0900B02E090B8
:1044C0000C02F0900D02C114D104E104F104E1F0FA
:1044D0000091730410917404209175043091760456
:1044E0000C0D1D1D2E1D3F1D6B017C01C01AD10A34
:1044F000E20AF30AF7FC08C0C11106C090910A074E
:1045000080910907981749F0CF911F910F91FF9063
:10451000EF90DF90CF900C9422385F9A1092420671
:104520008A9A109243069FB7F8948091080181609F
:10453000809308019FBF10924406129AE5CF0E9413
:10454000B11480E085DF0C9476558F929F92AF92E4
:10455000BF92CF92DF92EF92FF9280E50E9403120A
:10456000882329F00E94AD114B015C0103C0812C0E
:10457000912C540183E50E940312882361F00E946C
:10458000871120E030E04AE754E40E94985D0E94E1
:10459000CE5B4B015C010E94874A0E94220EC090B4
:1045A0007304D0907404E0907504F0907604C80C05
:1045B000D91CEA1CFB1C0E94FD576C197D098E0951
:1045C0009F0997FF02C0BBDFF6CFFF90EF90DF900F
:1045D000CF90BF90AF909F908F9008952F923F9271
:1045E0004F925F926F927F928F929F92AF92BF9203
:1045F000CF92DF92EF92FF920F931F93CF93DF93AF
:10460000CDB7DEB72E970FB6F894DEBF0FBECDBF85
:104610008DE690E00E94171281116CC180916506B1
:1046200083FD68C183E50E940312482E811105C0F5
:1046300082E50E9403128823D1F00E9487110E9414
:10464000C95B7093550D6093540D80E00E94CF4F6D
:104650000E94871120E030E04AEA52E40E945A5B4F
:1046600018160CF442C181E694E00E94CE4B0E94E1
:10467000AD4381E080930E0210925B0410925A04C5
:1046800019821A821B821C821D821E821F8218863A
:10469000512C19862CE32A873CE13B8746E44C8762
:1046A000E12CF12C70E8C72EEFEBDE2E812C912C43
:1046B00054018091540D9091550DBC01882777FDD0
:1046C0008095982F0E94FC5B162F072F782E692E5D
:1046D000262F372F482F592FB701C6010E945A5B4A
:1046E0008823E9F020915C0D30915D0D40915E0DC5
:1046F00050915F0D612F702F872D962D0E945A5B70
:10470000582E551C5524551C442069F0552059F04D
:1047100081E090E090935B0480935A04EBC01E2DDF
:104720000F2D7C2C6D2C0E94FD576B017C01DC0150
:10473000CB012D813E814F815885821B930BA40BA9
:10474000B50BB7FD50C0D701C60188519C4FAF4F84
:10475000BF4F8D839E83AF83B8870E94321866EA6D
:10476000262E63E0362EF1016491662341F082E744
:1047700093E00E940E0C9FEF291A390AF4CF81149E
:104780009104A104B10429F453EA252E53E0352EF7
:104790001EC0C501B401605F784D8F4F9F4F6C19EB
:1047A0007D098E099F0928EE33E040E050E00E9429
:1047B000815EBA01A9012AE030E082E793E00E941D
:1047C000C40C6AE082E793E00E940E0C0CC0F10179
:1047D0006491662341F082E793E00E940E0CFFEFA4
:1047E0002F1A3F0AF4CFABDE0E94220E20905C0D00
:1047F00030905D0DF0915E0DFE8720915F0D2D874D
:1048000091014F2F5D85612F702F872D962D0E946E
:10481000805A9F7781149104A104B10449F420E0E7
:1048200030E040E85FE30E945A5B87FF0BC008C09E
:1048300020E030E040E450E40E945D5D181614F47E
:10484000460157015520A9F189819A81AB81BC812C
:10485000892B8A2B8B2B61F0D701C60129813A81E4
:104860004B815C81821B930BA40BB50BB7FD21C060
:1048700091014E855D8569857A858B859C850E9431
:10488000805A20E030E040EC5FE30E945A5B87FDF5
:104890003FCFD701C601805A9541AF4FBF4F8983A3
:1048A0009A83AB83BC8329863A869E859B87AD8598
:1048B000AC8780910E02882309F42ACF81149104D9
:1048C000A104B10429F4E12EF02EC72CD62CF1CE90
:1048D000B0E1CB1AB7E2DB0AE108F108C818D90841
:1048E000EA08FB08F7FE14CFEECF81E694E00E94C1
:1048F000284CBDCE2E960FB6F894DEBF0FBECDBFAE
:10490000DF91CF911F910F91FF90EF90DF90CF90AB
:10491000BF90AF909F908F907F906F905F904F90DF
:104920003F902F900895FF920F931F93CF93DF93A3
:1049300080E50E940312882309F445C00E94B81143
:10494000EC0183E50E940312882321F00E94B81134
:104950008C0102C00FEF1FEFC8010196039798F575
:10496000EFEAF2E0819191918C179D0761F182E06D
:10497000EF3FF807B9F7D7FD26C00E94874AFC2E03
:1049800060E08C2F0E94DB590F3F8FEF180731F04A
:104990000130110571F0C0E0D0E00DC08C2F0E94F5
:1049A000495A31E020E0892B09F030E0C32FD22FA3
:1049B00002C0C1E0D0E08F2D0E94495A8C179D079C
:1049C00011F0BDDDF8CFDF91CF911F910F91FF90D6
:1049D00008952F923F924F925F926F927F928F92A3
:1049E0009F92AF92BF92CF92DF92EF92FF920F937E
:1049F0001F93CF93DF93CDB7DEB7C654D1090FB65F
:104A0000F894DEBF0FBECDBF1C017AAB69AB142F8B
:104A1000DB01CD90DD90ED90FC90139714968D9076
:104A20009D90AD90BC901797A7019601C701B60164
:104A30000E94985D2B013C01A5019401C501B401C0
:104A40000E94985D9B01AC01C301B2010E94815A92
:104A50000E94055E6FAB78AF89AF9AAF2091550683
:104A60003091560640915706509158062D8F3E8F33
:104A70004F8F58A3A70196016D8D7E8D8F8D98A1C4
:104A80000E94815A6BAF7CAF8DAF9EAF809159066B
:104A900090915A06A0915B06B0915C0689A39AA3F7
:104AA000ABA3BCA3A5019401BC01CD010E94815A16
:104AB00023966CAF7DAF8EAF9FAF239720915D069D
:104AC00030915E0640915F06509160062DA33EA393
:104AD0004FA358A7D10118966D917D918D919C910E
:104AE0001B970E94805A698F7A8F8B8F9C8FD10180
:104AF0001C962D913D914D915C911F9727962CAF5F
:104B00003DAF4EAF5FAF27972091610630916206AF
:104B1000409163065091640629A73AA74BA75CA76A
:104B2000D701C601B0588D8B9E8BAF8BB88FA50176
:104B300094015058298B3A8B4B8B5C8BD1018D9112
:104B40009D910D90BC91A02D8DA79EA7AFA7B8AB4E
:104B50002BAD3CAD4DAD5EADBC01CD010E94805A88
:104B60006B017C01D10114962D913D914D915C9189
:104B700017972BAB3CAB4DAB5EAB23962CAD3DAD4D
:104B80004EAD5FAD23976BA97CA98DA99EA90E940C
:104B9000805A4B015C01A70196016D897E898F893E
:104BA000988D0E94985D2B013C01A50194016989B3
:104BB0007A898B899C890E94985D9B01AC01C30115
:104BC000B2010E94815A2B013C01A50194016D891B
:104BD0007E898F89988D0E94985D4B015C01A701A9
:104BE000960169897A898B899C890E94985D9B01CD
:104BF000AC01C501B4010E94805AA30192010E9438
:104C0000F45A6B017C0120E030E0A9010E945A5B5C
:104C100087FF0AC02BED3FE049EC50E4C701B60125
:104C20000E94815A6B017C01112351F02BED3FE072
:104C300049EC50E4C701B6010E94805A6B017C0127
:104C400020E030E0A901C701B6010E945A5B811142
:104C500022C02DA53EA54FA558A96D8D7E8D8F8DA7
:104C600098A10E945A5B811116C02BA93CA94DA99D
:104C70005EA969A17AA18BA19CA10E945A5B8111B6
:104C80000AC02BED3FE049EC50E4C701B6010E9499
:104C9000815A6B017C012FA938AD49AD5AADC701CE
:104CA000B6010E94985D9B01AC010E94985D4B018A
:104CB0005C01298D3A8D4B8D5C8DCA01B9010E9432
:104CC000985D9B01AC01C501B4010E94815A0E940C
:104CD000055E4B015C012FE632E143E85AE30E9496
:104CE0005A5B87FDE4C1C501B4010E94375C0E9494
:104CF000CE5B7E8F6D8FFB01EF2B21F421E030E046
:104D00003E8F2D8F4D8D5E8DBA0180E090E00E9428
:104D1000FA5B4B015C019B01AC01C701B6010E942B
:104D2000615B2B013C01A5019401698D7A8D8B8D0E
:104D30009C8D0E94615B6BAB7CAB8DAB9EAB29A560
:104D40003AA54BA55CA527966CAD7DAD8EAD9FAD0C
:104D500027970E94805AA50194010E94615B6FAB66
:104D600078AF89AF9AAFA3019201C301B2010E944B
:104D7000985D20E030E040E05FE30E94985D9B0199
:104D8000AC0160E070E080E89FE30E94805A6DA76C
:104D90007EA78FA798AB8DA19EA1AFA1B8A589874B
:104DA0009A87AB87BC8729A53AA54BA55CA52D871B
:104DB0003E874F87588B20E030E040E752E4609117
:104DC0002702709128028091290290912A020E9464
:104DD000615B6B017C01609125027091260288273E
:104DE00077FD8095982F0E94FC5B9B01AC01C70169
:104DF000B6010E94985D20E030E048EC52E40E9449
:104E0000615B6DA37EA38FA398A70E94FD57DC0171
:104E1000CB0188539F4FAF4FBF4F89A39AA3ABA33A
:104E2000BCA3B12CA1E0B0E0BA8FA98F298D3A8D37
:104E30004D8D5E8D2417350708F025C10E947655EB
:104E40000E94FD576B017C0129A13AA14BA15CA1F5
:104E5000C21AD30AE40AF50AF7FC0BC09B01AC01A5
:104E600028533F4F4F4F5F4F29A33AA34BA35CA357
:104E700066DBB39438E13B150CF443C02DA53EA589
:104E80004FA558A969897A898B899C890E94985D68
:104E90006B017C01A30192016D897E898F89988DB8
:104EA0000E94985DA70196010E94815A162FA72E95
:104EB000982E892E2DA53EA54FA558A96D897E89CE
:104EC0008F89988D0E94985D6B017C01A3019201EE
:104ED00069897A898B899C890E94985D9B01AC01C4
:104EE000C701B6010E94805A6D8B7E8B8F8B988F85
:104EF000812F9A2DA92DB82D898B9A8BAB8BBC8BCA
:104F00006BC0498D5A8DBA0180E090E00E94FA5B37
:104F1000A30192010E94985D6B017C010E945E5B7F
:104F2000698B7A8B8B8B9C8BC701B6010E94FB5DD2
:104F30004B015C01A9A9BAA9CD90DD90ED90FC9040
:104F40001397F7FAF094F7F8F09414962D913D9199
:104F50004D915C91179729A73AA74BA75CA7298980
:104F60003A894B895C89C701B6010E94985D6D8BB7
:104F70007E8B8F8B988FA501940169A57AA58BA54F
:104F80009CA50E94985D9B01AC016D897E898F89EB
:104F9000988D0E94815A6D8B7E8B8F8B988FA50187
:104FA0009401C701B6010E94985D6B017C012989BB
:104FB0003A894B895C8969A57AA58BA59CA50E9435
:104FC000985D9B01AC01C701B6010E94805A698BB4
:104FD0007A8B8B8B9C8BB12C2D893E894F89588D78
:104FE0006BAD7CAD8DAD9EAD0E94815A69837A8395
:104FF0008B839C8329893A894B895C8923966CAD84
:105000007DAD8EAD9FAD23970E94815A6D837E83C7
:105010008F8398872BA93CA94DA95EA969857A85BC
:105020008B859C850E94815A69877A878B879C87AC
:105030002FA938AD49AD5AAD6D857E858F8598898C
:105040000E94815A6D877E878F87988BCE0101964B
:105050000E94D71EC0907E04EDA0FEA00FA118A54F
:105060009E01235F3F4FAE01475F5F4FBE016B5F05
:105070007F4FCE0101960E944138E98DFA8D31961D
:10508000FA8FE98FD3CE9101245F3F4FA101485F92
:105090005F4FB1016C5F7F4FC0907E04EDA0FEA01A
:1050A0000FA118A5C1010E9441380E940D14CA5BCE
:1050B000DF4F0FB6F894DEBF0FBECDBFDF91CF91AB
:1050C0001F910F91FF90EF90DF90CF90BF90AF9026
:1050D0009F908F907F906F905F904F903F902F9018
:1050E00008951F93CF93DF93CDB7DEB728970FB600
:1050F000F894DEBF0FBECDBF182F80912B028823FE
:1051000049F10E94171489E40E940312882319F0C0
:105110000E94871103C060E070E0CB0169837A834D
:105120008B839C838AE40E940312882319F00E94D7
:10513000871103C060E070E0CB016D837E838F83B5
:105140009887412FBE016F5F7F4F85E496E041DC79
:105150000E94220E28960FB6F894DEBF0FBECDBF78
:10516000DF91CF911F910895CF92DF92EF92FF923E
:105170006B017C018091A504882331F120E030E0AF
:10518000A901C701B6010E945A5B8823E9F020E01B
:1051900030E040E05FE3C701B6010E94985D6B011B
:1051A0007C012BED3FE049E450E40E94985DA701AB
:1051B00096010E94985D9B01AC0160E070E080E880
:1051C0009FE30E94615B04C060E070E080E89FE3C1
:1051D000FF90EF90DF90CF90089560911F02709143
:1051E00020028091210290912202BEDF60931B0277
:1051F00070931C0280931D0290931E020895CF931A
:10520000DF9388EC90E00E941712811142C084E481
:105210000E9403128823E9F10E948711C1E020E077
:1052200030E0A9010E945A5B811101C0C0E0C09327
:10523000A504CC2359F1C0916004D0E00E948711ED
:10524000FE01EE0FFF1FEE0FFF1FE15EFD4F6083BB
:1052500071838283938320E030E0A90160911F0273
:105260007091200280912102909122020E945A5B4B
:1052700081110CC080E090E0A0E4B0E480931F02B4
:1052800090932002A0932102B0932202DF91CF914C
:10529000A4CFDF91CF9108950F931F93CF93DF9306
:1052A0008091B20420E6829FC001112489549B4F53
:1052B0009093B6048093B5048091650680FF1DC06D
:1052C000CEE5D7E0FE016491662331F082E793E0FA
:1052D0000E940E0C2196F6CFC091B504D091B60471
:1052E0006991662329F082E793E00E940E0CF8CFC3
:1052F0006AE082E793E00E940E0C8091B5049091E1
:10530000B604FC01208101962032D9F3F093B60453
:10531000E093B5042E3461F0C091B504D091B60489
:105320006AE270E0CE010E94E1620097D1F420C0F1
:10533000818190ED980F9A3010F08D3269F7329696
:10534000DF0131962C9120532A30D0F3CD01FC019E
:10535000019620812032D9F3F093B604E093B5048E
:10536000DBCFFC0131968291803229F08A3219F02C
:10537000FE01219102C01082F6CF3E2F9F2F819116
:105380008032D9F380538A3018F00E947C14E9C22D
:10539000A32FB92FE0E0F0E09AE08D91AF01949F48
:1053A000F001959FF00D1124F097E80FF11D87FD96
:1053B000FA958C9180538A3080F3ED0111968881A3
:1053C0008032D9F3D093B404C093B30481E090E069
:1053D00090935B0480935A042D34D9F1243509F459
:1053E000ACC2273409F0B1C2E430F10549F120F430
:1053F000E230F105F8F414C0EA35F10519F130F4A2
:105400007C9709F0A6C20E944915A3C2EB35F105AD
:10541000E1F0EC35F10509F09CC20E94C11699C279
:1054200080912B02882309F494C20E9417140E94D1
:1054300033208FC281E0329709F080E052DE89C2CA
:1054400084D887C210927D0484C281E080937D0459
:1054500081C2E237F10509F4DCC108F076C0E43519
:10546000F10509F4AFC1D8F5EC34F10509F4F8C041
:10547000D0F4EF31F10509F4EDC040F4E131F1056C
:1054800009F4E5C0729709F49DC163C2EA32F105DF
:1054900009F4E3C0EB34F10509F05BC281E694E066
:1054A0000E94284C56C2E135F10509F477C158F441
:1054B000ED34F10509F4D9C0E035F10509F049C230
:1054C000269A2E9846C2E235F10509F478C1E335F3
:1054D000F10509F03EC281E08093A9043BC2EB369E
:1054E000F10509F44BC1C8F4E836F10509F4C2C06E
:1054F00058F4E535F10509F468C1EC35F10509F01A
:1055000028C20E947B1925C2E936F10509F4F1C0D1
:10551000EA36F10509F40FC11CC2EE36F10509F4B3
:10552000ACC050F4EC36F10509F4C1C0ED36F1051C
:1055300009F00FC253D80DC2E037F10509F4BAC023
:1055400008F0BFC00E948B1804C2EC3DF10509F4BD
:10555000A5C1D0F5E83CF10509F469C1C0F4E8370C
:10556000F10509F459C150F4E337F10509F46CC0B1
:10557000E737F10509F0EDC14BD7EBC1E937F1058C
:1055800009F450C1EC38F10509F49EC0E2C1EC3CCD
:10559000F10509F47DC168F4E93CF10509F449C15C
:1055A000EB3CF10509F0D5C1CFEFD2E009EF16E0F1
:1055B00062C1ED3CF10509F46EC1EE3CF10509F064
:1055C000C8C10E94E11AC5C1E03951E0F50709F4EC
:1055D00091C1E0F4ED3221E0F20709F485C150F405
:1055E000ED3DF10509F467C1E23EF10509F0B1C1F5
:1055F0009AD9AFC1EE3251E0F50709F478C1EF3224
:10560000F14009F0A6C10E94BF1CA3C1E53F21E003
:10561000F20709F472C160F4EA3951E0F50709F4C0
:105620004DC0EC3AF14009F094C10E94111D91C1A6
:10563000E73F21E0F20709F464C108F460C1E73EE6
:10564000F34009F46DC185C1C9EDD2E0D7C00E9415
:105650008C207FC10E945C177CC10E94D11779C148
:1056600081E694E00E94E44B74C181E694E00E94DC
:10567000CE4B6FC10E940C186CC18EE40E940312C5
:10568000882309F466C18091790490917A044AE0F4
:1056900050E060E070E001960E94566060933B0627
:1056A00070933C0680933D0690933E0652C1109243
:1056B0000E024FC184EB93E00E94AA200E947C1F3F
:1056C00048C10E94021945C18091650683FD41C110
:1056D00083E50E940312882309F43BC10E948711CD
:1056E0000E94C95B7093510D6093500D0E941C5035
:1056F00030C189E690E00E941712811113C0CAEAF6
:10570000D3E0FE016491662331F082E793E00E94CA
:105710000E0C2196F6CF0E9432186AE082E793E0E1
:105720000E940E0C10925B0410925A04DF91CF91EC
:105730001F910F91089583E50E940312882329F099
:105740000E94C511D82FC92F02C0DFEFC0E080E54D
:105750000E940312882329F00E94C511892B09F0A9
:10576000F8C02D2F3C2F2F3F310519F010F02FEFEF
:1057700030E03093800420937F04EBC080E50E94EA
:105780000312811105C01092800410927F04E1C0C1
:105790000E94C511892B09F0DCC0F5CF0E94695029
:1057A0000E94034B1092800410927F0468EE73E015
:1057B00080E090E00E942C58269A2E9ACAC010923F
:1057C000A904C7C00E942E19C4C083E50E94031219
:1057D000882309F4BEC00E94871120E030E04AE728
:1057E00054E40E94985D0E94CE5B60936F047093B6
:1057F00070048093710490937204ABC0FE016491B5
:10580000662309F4A6C082E793E00E940E0C21965D
:10581000F5CF0E94BC0D9DC081E080932C02809347
:10582000690698C010922C021092690692C0E7DCBB
:1058300090C0CFEFD2E009EB16E089910E940312ED
:10584000882349F00E9487110E94CE5BF801608393
:105850007183828393830C5F1F4FF3E0C330DF07B4
:1058600061F70E943B4375C00C5F1F4FF3E0C330EC
:10587000DF0709F46EC089910E9403128823A1F307
:105880000E948711F8016083718382839383ECCF38
:105890000E94151A5EC00E94861A5BC083E50E94B2
:1058A0000312882309F455C00E94B8119093260270
:1058B000809325024EC08DED90E00E941712811159
:1058C00048C083E50E940312882309F442C0C091B6
:1058D0006004D0E00E94B811FE01EE0FFF1FED5DE5
:1058E000FD4F9183808335C00E943A1B32C00E94D5
:1058F0004D1C2FC00E94874A2CC061D00EC05FD0C3
:1059000028C083E50E940312882339F00E94D21137
:1059100091E0811190E0892F01C080E09ED119C0F3
:1059200081E080932B0283E50E940312882379F0A3
:105930000E94D21181110DC00AC020E040E050E069
:10594000BA018E2F0E94201E04C080E003C00E9476
:105950006E1E81E010925B0410925A04882309F4B1
:1059600014CDDF91CF911F910F910C944C1E80911B
:10597000B004843010F40E9422228091B004882365
:1059800081F08ADC8091B004882359F081508093A3
:10599000B0048091B20490E00196837099278093BF
:1059A000B204A3D40C949F2281E694E00C94BE4BE5
:1059B0000E943B430E9483430E94F54C0ECCAF9261
:1059C000BF92DF92EF92FF920F931F93CF93DF93DB
:1059D000CDB7DEB7E0970FB6F894DEBF0FBECDBFF0
:1059E00080E1EFE5F2E0DE01919601900D928A955B
:1059F000E1F780E1EFE6F2E0DE01519601900D92D1
:105A00008A95E1F780E1EFE7F2E0DE01119601907F
:105A10000D928A95E1F77E0181E2E80EF11C09EE14
:105A200016E0BE016F5E7F4F49EF56E09E012F5F8B
:105A30003F4FE9EBAE2EE6E0BE2ED12CF70181916F
:105A40009191A191B1917F01F80181939193A193DB
:105A5000B1938F01FB0181919191A191B191BF010E
:105A6000FA0181939193A193B193AF01F9018191CF
:105A70009191A191B1919F01F50181939193A1938E
:105A8000B1935F01D394F4E0DF12D8CF80E090E8C7
:105A9000ABE3B5E48093AD069093AE06A093AF065A
:105AA000B093B0068093A9069093AA06A093AB0684
:105AB000B093AC068093A5069093A606A093A70684
:105AC000B093A8061092B1061092B2061092B306D7
:105AD0001092B40680E29EE4A0E0B0E08093B506A8
